:020000022000DC
:1070000000000420618F0600998F06007D72060043
:107010009D8F0600897206008F7206000000000036
:10702000000000000000000000000000E51B03005D
:10703000A58F0600000000007F1C03008F1C0300CA
:1070400059D4060001270600AB8F0600AB8F06005F
:10705000AB8F0600AB8F0600AB8F0600AB8F060030
:10706000AB8F0600AB8F0600AB8F0600AB8F060020
:10707000AB8F060061D80600AB8F0600C533060053
:10708000AB8F0600AB8F0600AB8F0600AB8F060000
:10709000AB8F0600AB8F0600AB8F0600AB8F0600F0
:1070A000AB8F0600AB8F0600AB8F0600AB8F0600E0
:1070B000AB8F0600AB8F0600000000000000000050
:1070C000AB8F0600AB8F0600AB8F0600AB8F0600C0
:1070D000AB8F0600AB8F0600AB8F0600AB8F0600B0
:1070E000AB8F0600AB8F0600AB8F060000000000E0
:1070F00000000000AB8F060000000000AB8F060010
:1071000010B5054C237833B9044B13B10448AFF3E1
:1071100000800123237010BDE06F002000000000FC
:107120006CCA070008B5034B1BB103490348AFF312
:10713000008008BD00000000E46F00206CCA07005A
:10714000154B002B08BF134B9D46A3F5803A002139
:107150008B460F461348144A121A4CF0C1FB0F4BD2
:10716000002B00D098470E4B002B00D098470020F2
:10717000002104000D000D48002802D00C4840F00A
:107180001DFE4BF0ADFE200029000CF0D3FD40F0B9
:1071900012FE00BF000008000000042000000000F4
:1071A000913C0300E06F0020787A0120BD7D06004D
:1071B0000000000010EE102A084BF6EE007AA3EB58
:1071C000620307EE103A60EE277AB7EE080A67EE20
:1071D000877AA7EE670A20EE070A7047DF59375F04
:1071E0009FED7D7A90ED034AD0ED023A90ED015A81
:1071F000D0ED045A07EE901A06EE903A67EE872A11
:1072000007EE902A67EE877A26EE877A27EEC41A71
:1072100064EE071AA3EEE21A08B5E5EE221AB1EE03
:10722000653AA3EE071AE3EE271A27EE632A23EE48
:10723000A73AA5EE272AA5EE073A2DED0C8BDDED3A
:107240000E0A9DED0F6A9DED10AAA5EEA22AA4EEEE
:10725000623AF5EE400AF6EE006AF1EE10FA21EE1F
:10726000261A61EEA61A22EE262A23EE263A0AD123
:10727000B5EE406AF1EE10FA05D1B5EE40AAF1EE96
:1072800010FA00F0828026EE060AB1EE009AA0EE17
:10729000A00AB2EE00BAAAEE0A0AFFF78BFF60EE70
:1072A000800A75EEA5BA63EE896A2AEE00AA25EE79
:1072B000A5CA20EE460A2BEEE06A74EE048A65EE5B
:1072C00005CAA6EE8C6A24EE048A25EE097A60EEE1
:1072D000A82A6CEE89CAE7EE082AA3EEAC6A63EE30
:1072E000A39A75EE057AE7EE292AB0EE467AA0EE6B
:1072F000277A23EE8BDA37EE666A64EE09AAADEEE2
:10730000296A73EEA34AADEE086A24EE0BBAAAEE20
:10731000266A60EEA76AE0EE242AE4EE2C6A64EEA8
:10732000E04AEAEE8C6AE0EE2B6A76EEEA6AEBEE71
:10733000296A69EE899AEBEE086AE5EEA94A28EE19
:10734000098AEAEE2A6AE5EE884AE0EE284A26EE45
:10735000060AA2EEA20AA6EEA60AA4EEA40AFFF767
:1073600029FFD0ED007A62EE802A26EE006A66EEF2
:10737000806A64EE804AF1EE677AA7EEA21AE7EE21
:10738000861AA7EEA62AA7EEA43AD0ED057AE7EE74
:10739000A13AA7EE815A23EEA30AA7EE824AA5EEF0
:1073A000050AE7EE835AA4EE040AA5EEA50AFFF744
:1073B00001FFBDEC0C8B25EE005A23EE806A64EED3
:1073C000006A65EE805A80ED015A80ED026AC0EDD8
:1073D000036AC0ED045A08BD39FA8E3C90ED017A7B
:1073E000D0ED037AD0ED026A67EEC77A90ED047AA9
:1073F000E6EE877A08B5B8EE007A67EE877A17EE80
:10740000900A48F043FDDFED047A07EE100A67EEBC
:10741000277A17EE900A08BDE12E654238B50D4671
:10742000C0F1FF010C2014460AF084FAC5F1FF01F7
:107430000D200AF07FFAC4F1FF010E20BDE83840AC
:107440000AF078BA08B50AF025FA2E4B1B6843B14A
:10745000834206D90021FF220846BDE80840FFF715
:10746000DDBF294B1B78052B1CD801A252F823F055
:107470008974020055740200AB740200F9740200B2
:10748000CD74020055740200204A1368C31AB3F584
:10749000FA7F35D310601E4A137883F0010313700E
:1074A000002BD7D10022114628E0184A1368C31ACE
:1074B000952B25D91060164A137883F001031370B9
:1074C000002BEFD000221146FF20C6E7114B1B789E
:1074D000002BE7D0104BD3ED007A104BF5EEC07ABD
:1074E000F1EE10FA93ED007AD8BFF1EE677AB4EEC0
:1074F000E77AF1EE10FAE5DB0022FF211046ACE757
:1075000008BD00BFDC7000201470002060700020F7
:1075100068700020186000206C700020306000202F
:10752000002213B511461046FFF778FF224B1C6866
:1075300023682046DB699847236820461F4CDB6898
:10754000984700221121204607F0C8FE2022102172
:10755000204607F0C3FE80225821204607F0BEFED9
:107560003F225B21204607F0B9FE00225C21204625
:1075700007F0B4FE20225E21204607F0AFFE0DF199
:1075800007011C22204607F015FE1D220DF1070100
:10759000204607F00FFE00210B200AF087FA4FF07B
:1075A000A043074AC3F82C274FF080430122C3F8B9
:1075B000002502B010BD00BF2472070078700020C3
:1075C00004000200F7B56A2200212348234D244C11
:1075D000244F07F046FC244B244A1A604FF07E5299
:1075E0005A6000229A60DA601A612149214A5A6180
:1075F000284601F069FE002622461F49284640F031
:10760000D8FB1E4D0096202312221D49384601F05A
:1076100055FC38461B4F2246294640F0CAFB202322
:1076200000960C221849384601F048FC3846174F9E
:107630002246294640F0BDFB009620231222144921
:10764000384601F03BFC22462946384603B0BDE8E7
:10765000F04040F0AEBB00BF78700020EC7000201E
:1076600000600020E07000201C700020CDCCCC3DDC
:10767000B07007006F12033B5D920200318E020072
:10768000D570070008700020FA700700D070002045
:107690001F7107002DE9F0474FF4E13194B0A7487E
:1076A00008F024FB01210C200AF000FA01210D2032
:1076B0000AF0FCF901210E200AF0F8F90022114627
:1076C0001046FFF7ABFE002105200AF0EFF99C48B9
:1076D00007F036FE024600B1FEE70146994F9A4E8A
:1076E0009A4DDFF85C92FF20FFF798FE00233B6085
:1076F00033602B604FF0C8081C46484607F031FD48
:10770000D7ED007A07EE100A77EE877A4846C7ED84
:10771000007A07F007FDD6ED007A07EE100A77EE43
:10772000877A4846C6ED007A07F03AFDD5ED007A33
:1077300007EE100A77EEC77A0A20C5ED007A0AF044
:10774000C7F8B8F10108D8D1DFED817AD7ED006A2A
:107750007B4886EEA77A4FF07E534FF0000AD6EDB5
:10776000006A87ED007A86EEA77AD5ED006A86ED8D
:10777000007A86EEA77A85ED007A764DAB606C6074
:10778000EC602C6107F090FC06466D4807F06DFC3C
:1077900007466B4807F0A7FC6F4B6B616F4B2B6084
:1077A00080F000484FF4FA64A9460022CDF8088022
:1077B00001970096534611464846FFF711FD013CDC
:1077C000F3D14FF08043DFF88C912B604FF4FA64D3
:1077D0004FF0000A0022CDF808800197009653462A
:1077E00011464846FFF7FCFC013CF3D15C4BDFF847
:1077F00064912B604FF4FA644FF0000A0022CDF838
:10780000088001970096534611464846FFF7E8FC6A
:10781000013CF3D1534B2B602146FF222046FFF75A
:10782000FDFD4FF496700AF053F82046224621469B
:10783000FFF7F4FD4C4B1C68236820469B68984773
:1078400000B9FEE7236821461B6A05A89847474907
:1078500008A809F0C8FE079B102B23D90E230C2281
:1078600005A90BA809F096FF0BA911A809F0E9FEDC
:1078700011230F2205A90EA809F08CFF0EA911A84B
:1078800009F031FF014608A809F0CCFE0EA809F066
:107890005FFE11A809F05CFE0BA809F059FE08A8CC
:1078A00009F098FF324911A809F09DFE08A911A816
:1078B00009F019FF01460EA809F0C3FE11A809F04E
:1078C00047FE23680E99DB6B2046984723680E9984
:1078D0009B6C2046984723682649DB6A20469847D8
:1078E0002549244801F00EFD2449224801F00AFDF3
:1078F0002349204801F006FD23681E491B6D2046E0
:1079000098472368A02120469B6F9847236820460C
:107910005B6D984709F0BEFF1A4B186009F0CCFF69
:10792000194B18600EA809F013FE08A809F010FE04
:1079300005A809F00DFE14B0BDE8F087C87F00204F
:107940007870002034700020387000203C700020D7
:10795000000048431C7000206F12033B00002041D0
:10796000CDCC4C3E0AD7233C247207004671070059
:107970004B710700EC700020E070002008700020C0
:10798000D070002054700020B8700020000000006B
:107990002DE9F04F3E4B2DED0E8B19680B68ABB007
:1079A0001B6F17A8984709F075FF044617A801F048
:1079B00029FB90B9374B1870374B1860FFF742FD21
:1079C000364B1B6833B1364A1268A41AA34201D25F
:1079D000FFF7A6FD052009F07BFF17A801F012FBB9
:1079E000002801F005802B4B06931A7812B9294A1A
:1079F000012313702B4A002313702B4A137009F0D4
:107A000049FF2A4B186009F057FF294B186009F00D
:107A100041FF284BA0F56A406038186017A801F0B4
:107A200011FB0246002800F0DC8709F033FF054611
:107A300009F042FF0790FFF705FD1F4801F07DFAAE
:107A4000002800F02181164B1B481D6001F050FA00
:107A50000446194801F056FA002840F315812378AE
:107A6000522B2FD100221146FF20FFF7D7FCC82050
:107A700009F02EFFBFF34F8F1049114BCA6802F473
:107A8000E0621343CB60BFF34F8F00BFFDE700BF41
:107A90002472070014700020DC70002014600020A5
:107AA000547000205170002052700020B4700020EB
:107AB000B8700020587000200870002000ED00E031
:107AC0000400FA055A2B40F04685069AD04FD14E55
:107AD000D14CDFF84C9302231370002308EE103AC8
:107AE0003B6033602360C822B846B246A34648468E
:107AF000059207F036FBD8ED007A07EE100A77EE14
:107B0000877A4846C8ED007A07F00CFBDAED007A78
:107B100007EE100A77EE877A4846CAED007A07F03A
:107B20003FFBDBED007A07EE100A77EEC77ACBED6C
:107B3000007AFFF787FC0A2009F0CAFE059A013A8D
:107B4000D5D1DFEDB67AD7ED006AB54886EEA77AD3
:107B50004FF07E534FF4FA694FF0000BD6ED006AF8
:107B600087ED007A86EEA77AD4ED006A86ED007A7A
:107B700086EEA77A84ED007AAA4CA36084ED018A90
:107B800084ED038A84ED048A07F08EFA0646A44841
:107B900007F06BFA0746A24807F0A5FAA24B63610B
:107BA000A24B236080F000480022CDF808800197A6
:107BB00000965B4611469B48FFF712FBB9F101099D
:107BC000F2D14FF0804323604FF000094FF4FA6484
:107BD0000022CDF80880019700964B461146914847
:107BE000FFF7FEFA013CF3D18E4B914A1A604FF435
:107BF000FA644FF0000B99460023CDF808800197F6
:107C000000961A4619464846FFF7EAFA013CF3D1B6
:107C10008448884EFFF7E2FB874B88491860884B01
:107C20008848C3F800B0884B884AC3F800B0884B36
:107C3000C3F800B0874BC3F800B0874B1C70874B6C
:107C40001C70874B874CC3F800B0874BC3F800B05B
:107C5000864B4FF0000C03F114074FF07E5E43F8A3
:107C600004CB9F4246F804EB44F804CB40F804CB25
:107C700041F804CB42F804CBF1D17D4B7D4A1A6028
:107C800009F01AFE7C4B18607C4A13684EF65F219F
:107C9000EB1A8B425DD90C20156009F0D7FE01214B
:107CA000202009F003FF0021202009F041FF0520DA
:107CB00009F00EFE062009F08DFE01210446202069
:107CC00009F036FF0021202009F0F0FE204647F0A1
:107CD00043FA49A3D3E9002347F0D2FB48A3D3E9F1
:107CE000002347F0A3FA48A3D3E9002347F09EFA04
:107CF00047F074FDDFED627A07EE100A67EE277A2F
:107D00006424FDEEE77A009400234FF4C8724FF428
:107D1000AA7117EE900ACDED057A09F0AEFA0028A7
:107D2000C0F21185009400234FF4C8724FF4AA7179
:107D3000059809F0A2FAA04200F3088500940023F8
:107D40004FF4C8724FF4AA71059809F096FA4D4B9A
:107D50001860494A07991368CB1AB3F5FA6FC0F057
:107D6000898307EE903A9FED487A2D481160F8EE2E
:107D7000677ADFF82081DFF82091444CC7EE87BA9C
:107D8000DFED437AF4EE67BAF1EE10FA48BFF0EE99
:107D900067BA07F06AF908EE100A214807F084F97B
:107DA0000AEE900A1E4807F09EF909EE900A1C4858
:107DB00007F0B8F909EE100A194807F0D2F908EEF1
:107DC000900A174807F0ECF988ED008A28EE088A37
:107DD0000F4BC4ED00AAF1EE697AAAEEAA8AC9EDAA
:107DE000007AD3ED007A0B4B78EEE78AD3ED007A78
:107DF00054E000BFAFF300800000000000FEAF4081
:107E00006666666666660A400135B56CADAF0740CA
:107E100034700020387000203C700020000048437F
:107E2000787000201C7000206F12033B000020417E
:107E3000CDCC4C3E10710020A87000204C71002069
:107E40007470002038710020707000206071002074
:107E500074710020A4700020FC6F002015700020B9
:107E600064700020247100206C700020FC700020E1
:107E7000B07000200AD7233CB87000205870002052
:107E80000000C8420C6000200024744900700020EB
:107E90006F12833A0470002008600020DA4BA9EECC
:107EA000A98A39EE679A07EE900AB1EE67AAD3ED78
:107EB000007A18EE100A3AEE67AA48F043F869EE25
:107EC000097A09EE900AE8EEA87AEAEE0A7A17EE45
:107ED000900A48F037F8CD4BD3ED00AACC4B79EEA1
:107EE000EAAA1B78F5EEC0AAF1EE10FA08EE100A25
:107EF000D8BFF1EE6AAA33B9DFEDC67AB4EEE78AED
:107F0000F1EE10FA12DDC44A15607BB1DFEDC17AE3
:107F1000B4EEE78AF1EE10FA08DDC04B1A78042AB5
:107F200004D0BF4A0121117004221A70F0EE047AC5
:107F3000F4EEE79AF1EE10FADFF8ECA207DCDFEDE1
:107F4000B97AB4EEE78AF1EE10FA40F30284002326
:107F5000F7EE007AC7EEAB6AB34ECAF80030D9F834
:107F60000030DFF810A3304619EE102A87EEA67A0B
:107F700018EE901A86ED057A0293D8F80030019336
:107F8000236800931AEE103AFFF72AF93046FFF7FC
:107F900025FAA64B07EE900A93ED00AA37EECAAA7F
:107FA000F6EE00CA1AEE100A47F0E8F88EA3D3E9FD
:107FB000002347F03BF947F011FC09EE100A18EED8
:107FC000100A47F0DBF888A3D3E9002347F02EF925
:107FD00047F004FC96ED027AD6ED036AD6ED047AFA
:107FE00096ED016A9AED00BAF0EE6C5AE7EE475A48
:107FF00066EEA77AE6EEE65AE6EE077A15EE901AF6
:1080000008EE900A17EE900A47F09AFFDFED887AA3
:1080100007EE100A67EE277A2BEE28CA17EE900AB1
:1080200047F0ACF870A3D3E9002347F0FFF847F01E
:10803000F5FD80461BEE100A894647F09FF80022A6
:108040007C4B47F0F3F842464B4647F0EFF847F0D9
:10805000C5FB794A794B146879491860A300194423
:1080600081ED00AA77499AED00AADFF80CA2194425
:108070000746706808607449B068194401340860A4
:108080007249F06819440860714930691944086000
:1080900070490B4483ED00CA052394FBF3F303EB13
:1080A0008303E41A6C4B1460D3ED007AF4EEC97AC2
:1080B000F1EE10FAC8BF83ED009A684BD3ED007A59
:1080C000F4EEC97AF1EE10FA48BF83ED009A644BE2
:1080D00093ED00DAB4EEC9DAF1EE10FA19EE100AF7
:1080E00054BFB1EE68BAB0EE68BA47F081FEDAED7F
:1080F000007A7BEE677A06461AEE100AC7EEABDA14
:1081000047F03CF802460B4639A1D1E9000147F09F
:10811000B7F901F1004308903046099347F02EF873
:1081200002460B46DDE9080147F080F847F056FBB0
:1081300007EE900A7DEEE77A4A4E17EE900A47F076
:108140001DF82DA3D3E9002347F070F8804630686E
:10815000894647F013F82AA3D3E9002347F066F8CD
:1081600002460B464046494646F0AAFE47F036FB1B
:108170003D4B3060D3ED00DA3C4E3D4B07EE100A2C
:108180006AEE2D7A19EE100A67EE877A96ED007A7C
:1081900093ED00EAF5EEC07AF1EE10FAB5EEC07A92
:1081A000D4BFF1EE676AF0EE676AF1EE10FAD8BF5D
:1081B000B1EE477AF4EEC76AF1EE10FAC8BFC6ED29
:1081C000007AF0EE00BA47F06DFDF4EEEB8AF1EEC6
:1081D00010FA834640F3E982B4EEECCAF1EE10FAED
:1081E00040F3E3824AE000BF399D52A246DF913F4F
:1081F0001F85EB51B89E23409A9999999999A93F67
:10820000666666666666EE3F3C700020246000206D
:108210005170002000007042547000201470002043
:1082200052700020000048441C700020A8700020FC
:10823000E12E654200005940F87000206C7000206B
:10824000FC70002010710020247100203871002083
:108250004C7100206071002074700020707000204C
:10826000B0700020187000201C600020A470002056
:10827000206000202C600020AC70002068EEA88AEE
:108280007AEE4E7A68EEA77A17EE900A46F076FFFD
:10829000E8A3D3E9002347F0F3F88046584689461F
:1082A00046F06CFF02460B464046494646F008FE43
:1082B00047F094FA07EE900A77EEE97A17EE900A03
:1082C00046F05CFFDBA3D3E9002346F0AFFF804616
:1082D0001DEE900A894646F051FF02460B46404685
:1082E000494646F0A3FF47F079FADFEDAB6A07EEA7
:1082F000100AB4EEE67AF1EE10FA07EE900A00F1F9
:108300005782DFEDA66AB4EEE67AF1EE10FA00F3DA
:108310005282FDEEE77ACDED057A9DF91480A04BEF
:10832000DFF800B383F800809BF80030DFF80C938F
:10833000002B71D0B5EEC09AF1EE10FA1BD519EEF4
:10834000100A46F01BFF92A3D3E9002347F0FEF981
:1083500088B1B5EEC0BAF1EE10FA0CDD914BD3ED59
:10836000007AF4EECC7AF1EE10FA42BF83ED00CA47
:108370008D4B83F80080B5EEC0DAF1EE10FA06D529
:10838000B5EEC09AF1EE10FAA4BF884B1F6099F8C1
:108390000030002B43D1864BD3ED007AF4EEEA7A1D
:1083A000F1EE10FA5ED8834B1B68EB1AB3F5FA7F37
:1083B00058D9814A1560814AC2ED009A804A82EDFF
:1083C000008A804A01231C44136089F80030052389
:1083D00094FBF3F303EB8303E41A7B4BA4002344E5
:1083E0001A687A4B1A607A4B23441A68794B1A60E0
:1083F000794B23441A68794B1A60794B23441A68E5
:10840000784B1A60784B23441A68784B1A60784B83
:108410001C44784B22681A6099F8003013B3664BFD
:108420001B68EB1A192B00F2F781644BD3ED007A2D
:10843000F4EEE97AF1EE10FA48BFC3ED009A604B12
:10844000D3ED007AF4EEC87AF1EE10FAF4EEEB9A7E
:1084500048BF83ED008AF1EE10FA03DD594A136834
:1084600001331360644B8AED00BAC3ED009A634B8D
:1084700083ED009A624A1368EB1A272B7FF6CEAA87
:10848000604BDFED616A93ED017A156027EE267A85
:10849000D3ED047A1195BDEEC77A67EEA67A17EE92
:1084A000102A93ED027AADF8482027EE267AFDEEE9
:1084B000E77ABDEEC77A052017EE102A93ED037A0E
:1084C000ADF84A2017EE903A27EE267AADF84E30F6
:1084D000BDEEC77A4D4BDFED4E6A17EE102A93EDD5
:1084E000007AADF84C2027EE267ABDEEC77A17EE5B
:1084F000103AADF85030474B93ED007A27EE267ACC
:10850000BDEEC77A17EE103AADF85230424BD3EDBC
:10851000007A67EEA67AFDEEE77A17EE903AADF8AC
:1085200054303E4B1C6809F033FB012804F07F04F3
:108530000CBF6FF07F03002323438DF85630184B98
:1085400037481B788DF857301422012311A900F009
:10855000E3FCFFF763BA412B0CD1324B01221A70B6
:10856000314A00231370314A1360314B03221A70D1
:10857000FFF786BB492B63D12A4A002313702A4A8E
:1085800013702B4A01211170284A1360FFF77CBB3E
:10859000182D4454FB21F9BF000000C30000FE4227
:1085A0001570002074710020FC6F002064700020A2
:1085B000106000205C7000204C700020447000208F
:1085C0004870002040700020FC700020BC7000202B
:1085D000107100202860002024710020C07000204D
:1085E00038710020C47000204C710020C870002039
:1085F00060710020CC70002024600020B07000204A
:10860000B47000201C70002000401C460070002048
:108610000000C84204700020086000200C600020A8
:10862000E07000205170002052700020DC700020AB
:10863000147000201F85EB51B89E2340507000201D
:10864000432B7FF421AB07287FF71EAB6078604E89
:1086500046F082FD00225F4B46F012FF47F0BEF865
:108660005D4B1860A07846F077FD00225B4B46F02A
:10867000DDFD00225A4B46F003FF47F0AFF8594B9F
:108680001860E07846F068FD0022544B46F0F8FE92
:1086900047F0A4F808EE100A3060207946F05CFD3F
:1086A00000224F4B46F0ECFE47F098F84E4B6279B3
:1086B00018604EF6602353434C4AA079136046F08D
:1086C0004BFD0022454B46F0DBFE47F087F8484B58
:1086D00048491860E37948485A1E53425341474A73
:1086E000F7EE007AB4EEE78A13700123F1EE10FA88
:1086F0001A4648BFC6ED007A00F00EFC052009F0CE
:10870000E7F83F490EA808F06EFF0EA911A808F07F
:1087100098FF3C4B11A8196808F0F1FF01460BA81F
:1087200008F08FFF11A808F013FF0EA808F010FF43
:1087300001230D9A0B99304800F0EEFB0BA808F0CE
:1087400007FFFFF7A1BA0020FFF701BB2046FFF7A4
:10875000FEBA19EE900A46F011FD00222A4B46F0AF
:10876000ADFB0022002306460F4646F0EFFF88B11E
:1087700013A3D3E900233046394646F0C9FF88B138
:10878000F1EE047AB4EEE78AF1EE10FA0AD51F4B47
:10879000FFF7DEBB0CA3D3E900233046394646F091
:1087A000D5FFECE71A4BFFF7D3BBDFED1A7AB0E544
:1087B0006FF07F08B3E54FF07F08B0E5AFF30080BE
:1087C0009A9999999999B93F9A9999999999B9BF0B
:1087D00010600020000059402C6000200000244060
:1087E00000408F401C6000202060002014600020AA
:1087F000306000207FB60700D07000201860002095
:1088000044710700046000200000F03FCDCCCC3D57
:108810000AD7233C00000000B3F57A7F7FF622AE32
:10882000002389F80030764B9FED768A1D60764BE9
:10883000D3ED007A754BF5EEC07A93ED007A744B68
:10884000F1EE10FAD8BFF1EE677AB5EEC07AF1EE2C
:1088500010FA6AEE277AD8BFB1EE477A67EE888AB7
:108860001C686C4BF0EE487A2AEE078A640028EE0A
:10887000278AD3ED007AF4EE677AF1EE10FA08D683
:108880009FED657AF0EEE77AF4EE477AF1EE10FAB2
:1088900001DD00221A6053238DF844305F4B1868C5
:1088A00046F06CFC00225E4B46F0C0FC46F06EFFCA
:1088B0005C4BADF84500186846F060FC00225A4B4E
:1088C00046F0B4FC46F062FF002CADF84700C0F261
:1088D0008680FF2CA8BFFF24E4B218EE900A8DF822
:1088E000494046F04BFC00224F4B504C46F09EFC5A
:1088F00046F04CFFADF84A0018EE100A46F03EFC78
:108900000022494B46F092FC46F040FF484BADF840
:108910004C00186846F032FC0022414B46F086FCC1
:1089200046F034FF2378ADF84E0030688DF85030B3
:1089300046F024FC00223C4B46F078FC46F026FF33
:108940003C4BDFED3D6A93ED007AADF8510027EE28
:10895000267A1722BDEEC77A11A917EE103AADF8A4
:108960005330364B364893ED007A27EE267ABDEE2B
:10897000C77A17EE103AADF85530324B93ED007AC6
:1089800027EE267ABDEEC77A17EE103AADF85730CB
:108990002D4BD3ED007A67EEA67AFDEEE77A17EE5F
:1089A000903AADF85930012300F0B6FA274B284A27
:1089B0001D6005F51C5310331360069A05231370D0
:1089C000114A00231360114A33601360114A136087
:1089D000204A002323708BF80030137042E50024F6
:1089E0007BE70146FEF71AFD08F054FF1A4B1860AA
:1089F00017A800F0A9FA2BB0BDEC0E8BBDE8F08FE4
:108A00005C7000200000C84274700020707000206C
:108A10004070002074710020FFFF7F7F44700020B1
:108A2000000059404870002000002440FC6F0020E6
:108A3000CC7000202860002000401C46C070002040
:108A4000D0700020C4700020C8700020B4700020D6
:108A5000DC7000205270002054700020704710B568
:108A60005C2104463FF0CCFB204610BD0B4A02605F
:108A70001F210022C0E90921C0E90B2280F834201F
:108A800080F83520C0E90E220264A0F8442080F866
:108A90004620C0E91222C0E9152270476471070020
:108AA00000231F22C0E90A23036380F83530C0E9A0
:108AB0000E33036480F84630C0E91233C0E9153341
:108AC00070478B6A8362CB6AC3620B6B036391F856
:108AD000343080F8343091F8353080F835308B6B95
:108AE0008363CB6BC3630B6C0364B1F84430A0F8B1
:108AF000443091F8463080F846308B6C8364CB6C00
:108B0000C364B1F85030A0F850304B6D43658B6DA5
:108B10008365704708B5FFF7D4FF08BD70B50546FB
:108B200086B068460E4603F049FCEC6C6846002CA3
:108B3000CCBF0234002403F07FFC0230241AA86A60
:108B4000241808D4AC62AE64684603F075FCE8648F
:108B5000012006B070BD0020FBE710B5036C23B107
:108B600090F84640023304B10233941C1B1B846A04
:108B70001B1958BFC0E90F124FF000045BBF80F80B
:108B8000464083622046012010BD30B5046C24B1FC
:108B900090F84650023405B102341D1D641B856AED
:108BA00064195FBFC0E90F230123A0F8441080F8C7
:108BB000463056BF84620020184630BD30B5846D03
:108BC000002CCCBF043400241D1D641B856A64196D
:108BD0005DBFC0E91523A0F850108462002058BF83
:108BE000012030BD70B50546806B0E4688B1047813
:108BF00014B14BF0A5FA841C30464BF0A1FA0230B8
:108C0000241AA86A24185DBFAC62AE63012000205C
:108C100070BD0446F0E790F83530826A002B0CBF37
:108C20006FF0020300239B185FBF8362012380F86B
:108C3000353080F8341054BF184600207047043097
:108C40007047406A704790F83500704738B5044661
:108C5000406AC0F11F039342154608DB04302044EC
:108C60004AF040FD626A2A446262012038BD002059
:108C7000FCE770B50446406A0E461D4611460233B5
:108C8000C0F11F029A420FDB23186A1C1A71821C62
:108C90000630626220445E712A464AF023FD636A10
:108CA0002B446362012070BD0020FCE770B586B0E4
:108CB0000546684603F082FB684603F0BDFB0228C8
:108CC00004466846CCBF0626022603F0B3FB2346C3
:108CD000024631462846FFF7CCFF06B070BD13466A
:108CE0000A46FF21FFF7C5BF70B588B008AC06463D
:108CF00024F8201D10461D461A4601460DF10200BB
:108D00004AF0F0FCAB1C2246FF213046FFF7B1FFD2
:108D100008B070BD70B588B008AC064624F8201DB8
:108D200010461D461A4601460DF102004AF0DAFCD3
:108D3000AB1C224616213046FFF79BFF08B070BDE2
:108D400007B502AA012302F8011D1946FFF791FF9A
:108D500003B05DF804FB70B5054610460E46144698
:108D60004BF0EEF92246034631462846BDE87040F6
:108D7000FFF77FBF70B5054608460C464BF0E0F99B
:108D80001D2807D9224628461D230821BDE870402A
:108D9000FFF76FBF224628460921BDE87040FFF764
:108DA000DABF38B5C16A00230546436229B1026BB8
:108DB0001AB1BDE83840FFF749BF95F835307BB3AD
:108DC00095F834102846FFF7BBFF0446A96C21B183
:108DD0002846FFF76BFF0440E4B2E96B61B12B6CEE
:108DE00053B195F84620EAB10A462846B5F8441032
:108DF000FFF77AFF0440E4B26A6D42B1AB6D33B164
:108E0000B5F850102846FFF785FF0440E4B2A96B7F
:108E100021B12846FFF7AEFF0440E4B2204638BD3A
:108E20000124D3E71A462846FFF759FFE2E700007E
:108E30000C4B10B504460360406838B100F090FA5E
:108E400020B9606810B103685B689847A06838B1C2
:108E500001F011F820B9A06810B103685B68984769
:108E6000204610BD7471070010B50446FFF7E0FFFF
:108E700020460C213FF0C4F9204610BD064B10B52A
:108E8000C0E9003100230446836011B1084600F0B8
:108E900062FA204610BD00BF74710700064B10B582
:108EA000036000230446C0E9013111B1084600F017
:108EB000DDFF204610BD00BF747107002DE9F341AE
:108EC0000446542098460E4617463FF081F99DF817
:108ED00020300093054643463A46314600F01AFBDF
:108EE00029462046FFF7CAFF204602B0BDE8F081C0
:108EF0000346406808B100F043BA986808B100F032
:108F0000E3BF70470346406808B100F03BBA986879
:108F100008B100F0DBBF704710B4446824B12046AC
:108F20005DF8044B00F030BA806818B15DF8044B6E
:108F300000F0CEBF5DF8044B7047406808B100F008
:108F400090BA70474068704770470000024B18683D
:108F500003681B69184700BF14750700024B1868A7
:108F600003685B69184700BF1475070010B4054B10
:108F700001791B681A685469421D184623465DF83A
:108F8000044B18476873070010B50B4B044618686C
:108F900021790368621D9B6A98474FF6FF739842D8
:108FA000014606D0054B18680268BDE81040926A79
:108FB000104794F94B0010BD687307001475070043
:108FC00010B54C2104463FF01BF9204610BD0000AF
:108FD00010B58AB0044648794B7A8A7A039088792A
:108FE0000290C8790190097A009105A804494AF0D5
:108FF00099FE05A9204608F0F6FA20460AB010BDF1
:109000007C71070007B500230622694605300093EE
:10901000ADF804304AF034FB003018BF012003B033
:109020005DF804FB08B502790B799A4208D1062253
:10903000053105304AF024FBB0FA80F0400908BD44
:109040000020FCE710B50A4B0446186803681B694A
:109050009847236820461B6A984740B1054B217901
:1090600018680368621D5B6BBDE81040184710BDAF
:10907000147507006873070008B502790B799A42E6
:1090800008D10622053105304AF0FAFA003018BF3F
:10909000012008BD0120FCE7064A02607F21002272
:1090A000C272027380F84B10C0F80520A0F80920A6
:1090B000704700BFA471070010B501710021C17293
:1090C0000173064C04607F2180F84B101168C0F8D2
:1090D00005109288A0F8092010BD00BFA4710700F8
:1090E0002DE9F0410F461449064608F07CFA3A7B18
:1090F00000218A421CDD7B1801F10208597B9B7B11
:10910000083B012B01F1FF340FD82146304608F00F
:109110003EFA0025AC420BDD08EB05033B4430462C
:10912000597B08F0D5FA0135F4E704EB0801E0E7D4
:109130003046BDE8F08100BF84B507002DE9F04F4F
:1091400085B0884622490192834608F04CFA0024F3
:10915000A14698F80C30A34235D908EB0403671CEC
:10916000FFB25E7B08EB07035B7B9A1E012A25D9C1
:10917000063B012B24D810250234E4B205FB05F38D
:109180000D34009344444FF0000A731EEAB2534575
:1091900016DD019989450BD11146204603930292B1
:1091A00003F04CF90146584608F055FADDE9022370
:1091B000009909F10109AA440C44E8E70225DBE71C
:1091C0003E44F4B2C5E7584605B0BDE8F08F00BF95
:1091D00084B5070010B500220446FFF7AFFF204614
:1091E00010BD08B5134602798A4208D106221946F5
:1091F00005304AF045FAB0FA80F0400908BD002079
:10920000FCE710B50446012000FA01F1E172227377
:10921000194604F10D004AF065FA9DF9083084F80A
:109220004B3010BD70B50D461146C27A42F01002A7
:109230000446C272007B0D302A4620441E464AF086
:1092400051FA237B84F84B601D44257370BDC37AAB
:1092500013F0180F14BF0120002070470C4B10B5FD
:1092600004460360406838B100F07AF820B96068BD
:1092700010B103685B689847A06838B100F0FBFD47
:1092800020B9A06810B103685B689847204610BDFC
:10929000D871070010B50446FFF7E0FF20460C2107
:1092A0003EF0AEFF204610BD064B10B5C0E90031C0
:1092B00000230446836011B1084600F04CF82046B4
:1092C00010BD00BFD871070070B5044630200E46AF
:1092D0003EF07EFF3146054600F002FD294620465D
:1092E000FFF7E2FF204670BD0346406808B100F07A
:1092F00029B8986808B100F0B7BD0148704700BFB1
:1093000084B50700406808B100F028BD7047406888
:10931000704770470020704710B5202104463EF08A
:109320006FFF204610BD000010B5054B044640F805
:10933000043B03F043F80023E361204610BD00BF67
:10934000E8710700043003F073B8043003F072B81A
:10935000043003F071B8C3690133C3611846704724
:10936000C369013BC3611846704742F6030070476A
:1093700090F82000704790F821007047406A7047CD
:10938000806A7047808D7047436A9A422DE9F041A8
:10939000A8BF1A460446828592B2806A0F464AF0F8
:1093A000A1F994F82E300BB1636AA38594F82030AC
:1093B00098060FD5A28E91070CD51F4B218E1868E9
:1093C00003685D6D0131A38DA26AAC4689B2BDE828
:1093D000F0416047DA0609D5A38EDB0706D5164BA8
:1093E000218E1868036801311D6DECE794F8323066
:1093F000F3B1124B1868036821465B6A9847104B1B
:109400001D682B6801461E6BA38D3A462846B0475F
:10941000094B186803681B6B984748B9094B1868D3
:1094200003689B68984718B12B6828465B6D98477E
:10943000A08DBDE8F08100BF68730700B474070019
:10944000247207006874070038B5054608460C46C4
:109450004AF076FE214602462846BDE83840FFF72E
:1094600093BF0346002290F8330083F833207047FF
:1094700001867047008E7047008E013080B27047C1
:10948000806B7047836B994208D2C36B0022914274
:1094900002D05B680132FAE7186870470020704715
:1094A00030B5114B03600B7903710B4601F1490490
:1094B00053F8052FC0F805209B88A0F80930CB7A17
:1094C000C3720B7B037300F10D0201F10D0353F81E
:1094D000045B42F8045BA342F9D11B88138091F925
:1094E0004B3080F84B3030BDA471070038B50446CE
:1094F00008200D463EF06CFE0023C0E9005363686F
:109500002BB960602368A0600133236038BDA36875
:109510005860F7E770B5044615461E46FFF704FF8E
:109520001E4B2360B6F5007F4FEA152384F82130E7
:109530003346A8BF4FF40073002163629DF81030DA
:1095400084F82050A18584F82E30218684F83210CA
:1095500084F83310A186C4E90E112164102204F1AD
:1095600044004AF0BDF915F0300F11D02C203EF028
:109570002FFE0B490546022304F1340200F0D6F811
:109580002846FFF7E8FE294604F13800FFF7AEFF52
:10959000304649F05BFDA062204670BD04720700B2
:1095A000F471070070B50446406800252368AB429B
:1095B00006D9466808213EF023FE01353046F5E71E
:1095C0000023C4E90033A36070BD0000154B70B5E3
:1095D000044603600025A36B9D4212D2E36B002278
:1095E000954202D05B680132FAE71E683046FFF709
:1095F000B7FE20B91EB1336830465B689847013525
:10960000E9E704F138052846FFF7CCFFA06A08B166
:1096100049F024FD2846FFF7C5FF2046FFF779FEF5
:10962000204670BD0472070010B50446FFF7CEFF58
:10963000204654213EF0E4FD204610BDF0B5C56C37
:1096400097B0044617461E467DB103A8FFF728FFD2
:1096500021466846FFF712FC694603A8A8476846FA
:10966000FFF7E6FB03A8FFF76FFCA16A1C9A3944D9
:1096700030464AF037F817B0F0BD70B504460E46D4
:109680001146012280F8332096B01A46FFF77CFE7F
:10969000256D85B1314603A8FFF702FF21466846D4
:1096A000FFF7ECFB694603A8A8476846FFF7C0FB35
:1096B00003A8FFF749FC16B070BD30B5838E02F0E9
:1096C0000302934297B0044617D08286002A0CBF4B
:1096D00044224022024455687DB103A8FFF7E0FE12
:1096E00021466846FFF7CAFB694603A8A8476846B3
:1096F000FFF79EFB03A8FFF727FC17B030BD4FF420
:109700002450704710B5034B03600446FFF701FE79
:10971000204610BD1872070010B50446FFF7F2FF8F
:1097200020462C213EF06CFD204610BD70B504464D
:109730001D461646FFF7F8FD064B2360B5F5007F82
:10974000A8BF4FF40075002326626562238520467A
:1097500070BD00BF18720700406A7047006A70470A
:1097600001857047024B186803681B69184700BFE2
:1097700014750700024B186803685B69184700BF3F
:109780001475070010B5064B186803681B699847E5
:10979000044B18680368BDE810401B6B184700BFF6
:1097A000147507006873070010B5064B1868036846
:1097B0001B699847044B18680368BDE81040DB6BD1
:1097C000184700BF1475070068730700024B18683C
:1097D00003689B6C184700BF687307000C30704724
:1097E00068307047024B186803681B69184700BF50
:1097F000B4740700024B186803685B69184700BF20
:10980000B4740700024B186803689B69184700BFCF
:10981000B4740700024B186803681B69184700BF3F
:1098200068740700024B186803685B69184700BF3B
:1098300068740700024B186803685B6A184700BF2A
:109840006874070010B5074B0446186803681B6965
:109850009847054B19680B682046DB6C98472046F3
:1098600010BD00BF147507006873070010B5074BE3
:109870000446186803681B699847054B19680B680C
:1098800020469B6A9847204610BD00BF147507000C
:1098900068740700024B18680368DB6A184700BF4A
:1098A00068740700024B186803689B69184700BF7B
:1098B000FC760700024B18680368DB69184700BF95
:1098C000FC760700024B186803681B6B184700BF43
:1098D00068740700024B18680368DB68184700BF0C
:1098E00068730700024B186803681B6A184700BFBB
:1098F000FC760700024B186803685B6A184700BFD4
:10990000FC760700024B1B68C3F8F010704700BFDD
:1099100014750700024B1B68C3F8F810704700BFAE
:1099200014750700024B1B68C3F8F410704700BFA2
:1099300014750700024B1B68C3F8EC10704700BF9A
:1099400014750700024B1B68C3F8FC10704700BF7A
:1099500014750700024B1B68C3F80011704700BF65
:1099600014750700024B18680368D3F89C30184739
:1099700014750700024B18680368D3F8A030184725
:1099800014750700F0B52A4B1D682B6887B0044694
:109990009B6828469847064620B923682046DB681E
:1099A00098470DE0642007F093FF2B6828469B69D9
:1099B0009847064638B123682046DB68984700265A
:1099C000304607B0F0BD05AA2B6801920DF11202D6
:1099D0000092DF6904AA0DF10E030DF10D01284676
:1099E000B8470028D9D12B684FF0FF32D96A2846F2
:1099F0006FF0404388470028CFD12B6840F2FF32F8
:109A0000196B28460023884706460028D3D12B68C7
:109A10000DF10F025B6B0DF11601284698470028E7
:109A2000BBD1044B186803689B6898470126C7E7B9
:109A300014750700B47407000A4B10B50446186883
:109A40000368DB689847084B18680368DB68984729
:109A500004F10C00FFF724F804F16800BDE81040A1
:109A6000FFF71EB8B47407001475070010B58CB06A
:109A700000230593ADF81830104B044618680368AE
:109A800005A91B6A98479DF8141003919DF81510BD
:109A900002919DF8161001919DF817109DF818304D
:109AA0009DF81920009107A805494AF03BF907A93C
:109AB000204607F098FD20460CB010BD1475070035
:109AC0007C7107000C30FFF729B870B503680446B5
:109AD00008469D6AFFF708FC2B4601462046BDE874
:109AE000704018470C30FFF769B80C30FFF735B8F5
:109AF0000C30FFF74AB86830FFF774B86830FFF7EA
:109B000009B810B500F10C042046FFF703F8204611
:109B1000FFF799F828B920460621BDE81040FFF765
:109B20007AB810BD2DE9F74300F10C0504466834FE
:109B30002846FFF736F92046FFF733F90E4B1E682B
:109B400033682846DF68FFF77AF880462846FFF733
:109B500078F805462046FFF772F881462046FFF761
:109B600070F8C0B200904B46EAB241463046B84762
:109B700003B0BDE8F08300BF687407007FB5094BF0
:109B80001C682368164601A89D6907F05AFD3246F5
:109B900001A92046A847044601A807F0D9FC2046A1
:109BA00004B070BD687407007FB5094B1C6823685A
:109BB000164601A8DD6907F044FD324601A920469A
:109BC000A847044601A807F0C3FC204604B070BDB6
:109BD000687407007FB5094B1C682368164601A806
:109BE0001D6A07F02EFD324601A92046A84704460B
:109BF00001A807F0ADFC204604B070BD68740700F2
:109C000002290BBF044B054B186818680BBF03688B
:109C100003685B6B9B6D18476874070068730700E7
:109C200038B50446084B44F80C3B05462046FEF781
:109C30001DFF05F16800FEF719FF06212046FEF71B
:109C4000EAFF284638BD00BF3072070010B5054C4A
:109C50002046FFF7E5FF2046034A0449BDE81040CF
:109C60003EF0A7B87871002000600020719C0200CF
:109C700010B5064B044640F8683BFEF7EFFE04F1D2
:109C80000C00FEF7EBFE204610BD00BF307207004F
:109C900010B50446FFF7ECFF2046C4213EF0B0FAB1
:109CA000204610BD10B50B4B19680B6894B001A885
:109CB000DB6C984701A8FFF7A5F948B101A8FFF7A9
:109CC00063F9044601A8FFF73FF9204614B010BD20
:109CD0007F24F7E7687307004FF4205070470000B7
:109CE00010B50446FFF720FB044B23600023C4E9B2
:109CF0000833C4E90A33204610BD00BFFC720700D8
:109D0000018442847047008C7047408C7047406AE1
:109D10007047436A994208D2836A0022914202D076
:109D20005B680132FAE7186870470020704738B561
:109D3000044608460D46FFF70EFB08203EF048FAA1
:109D40000023C0E90053A36A2BB9A062636AE062F2
:109D50000133636238BDE36A5860F7E710B5044623
:109D60000846FFF7EFF8014620B12046BDE8104055
:109D7000FFF7DDBF10BD70B50446406800252368BD
:109D8000AB4206D9466808213EF03AFA0135304622
:109D9000F5E70023C4E90033A36070BD10B50446A5
:109DA0002430FFF7E8FF0023236210BD134B70B58A
:109DB000044603600025636A9D4212D2A36A002212
:109DC000954202D05B680132FAE71E683046FFF721
:109DD000C7FA20B91EB1336830465B689847013531
:109DE000E9E72046FFF7DAFF04F12400FFF7C3FF9D
:109DF0002046FFF78EFA204670BD00BFFC720700B8
:109E000010B50446FFF7D2FF204630213EF0F8F9A6
:109E1000204610BD10B5044B044640F8043B07F043
:109E200097FB204610BD00BF1073070010B5044615
:109E3000FFF7F0FF204614213EF0E2F9204610BD66
:109E400038B504462546074B45F8043B08461146FD
:109E500002F0F4FA0146284607F0C5FB002323610F
:109E6000204638BD1073070040687047036901330E
:109E70000361184670470369013B03611846704748
:109E800070B504461E46BDF81450FFF7D9FF0D4BC0
:109E90002360BDF81030E382BDF818302576638367
:109EA0002D0A00230122A6826576C4E9073384F8CF
:109EB000243084F82520C4E90A33C4E90C33204651
:109EC00070BD00BF20730700C0697047006A70470B
:109ED0002DE9F0439846274B1E68336885B0044649
:109EE0000F469B6B818A30469146984718B90020EF
:109EF00005B0BDE8F0833368A18A5B6C30469847B3
:109F0000033885B24D45A8BF4D462946E06949F062
:109F100047FDE0610028EAD0237E1A071CD5B8F17E
:109F2000000F19D003A833680190E8B20090D3F86D
:109F30006080628BA18A3B463046C0470028D7D05C
:109F40009DF80C30012BD2D02A463946E06949F001
:109F5000C9FB25620120CBE75B07C8D53368628B5C
:109F6000A18AE8B20090D3F8648030463B46C047EF
:109F7000EAE700BF68730700408B704738B50446B6
:109F800008460D46FFF772FF08203EF021F9002336
:109F9000C0E90053E36A2BB9E062A36A206301338E
:109FA000A36238BD236B5860F7E770B5044640687C
:109FB00000252368AB4206D9466808213EF020F907
:109FC00001353046F5E70023C4E90033A36070BDD6
:109FD00003688B4208D9436800228A4202D05B683A
:109FE0000132FAE71868704700207047F8B5054657
:109FF000134B45F8283B04460026A36A9E420ED226
:10A0000031462846FFF7E4FF0746FFF734FF20B943
:10A010001FB13B6838465B6898470136EDE7284634
:10A02000FFF7C3FFE06918B149F018F80023E361B6
:10A030002846FFF7BAFF2046FFF7ECFE2046F8BDA2
:10A040002073070010B50446FFF7D0FF20463821E3
:10A050003EF0D6F8204610BD70B50446036296B0B7
:10A060000D46C0691946164649F09AFCE06110B9E0
:10A07000206216B070BD012384F8243000233146DD
:10A0800084F82530226A49F02DFB666B002EF0D053
:10A09000194B03932B798DF810302B4605F14901AC
:10A0A00053F8052FCDF811209B88ADF81530EB7AC9
:10A0B0008DF817302B7B8DF818300DF1190205F152
:10A0C0000D0353F8040B42F8040B8B42F9D11B88A3
:10A0D000138095F84B308DF8573021466846FEF7CF
:10A0E000DDFE694603A8B0476846FEF7A1FE03A857
:10A0F000FEF72AFFBDE700BFA4710700074B10B5AC
:10A1000004460360806918B148F0A8FF0023A361EA
:10A110002046FFF77FFE204610BD00BF30730700CA
:10A1200010B50446FFF7EAFF204620213EF068F80C
:10A13000204610BD38B504461D46FFF781FE054B8D
:10A140002360BDF81030E3820023A582C4E9063302
:10A15000204638BD30730700034A02600022C0E980
:10A160000122C260704700BF4073070038B5044643
:10A1700008460D46FFF77AFE08203EF029F8002336
:10A18000C0E90053A3682BB9A0606368E0600133A5
:10A19000636038BDE3685860F7E74068704743681C
:10A1A000994208D283680022914202D05B68013252
:10A1B000FAE7186870470020704770B50446406899
:10A1C00000252368AB4206D9466808213EF018F8FE
:10A1D00001353046F5E70023C4E90033A36070BDC4
:10A1E00070B50646002473689C4212D2B368002200
:10A1F000944202D05B680132FAE71D682846FFF7F7
:10A200003AFE20B91DB12B6828465B689847013497
:10A21000E9E7301DFFF7D1FF70BD000038B50446F7
:10A22000054B44F8043B0546FFF7DAFF2046FFF7ED
:10A23000C4FF284638BD00BF4073070010B5044670
:10A24000FFF7ECFF204610213DF0DAFF204610BD5D
:10A2500038B504461D46FFF7F3FD084B2360BDF8F3
:10A260001030E382A582064904F1180007F0BBF91B
:10A270000023C4E90933E362204638BD5073070068
:10A2800084B50700808A7047C08A7047406A70476B
:10A29000436A994208D2836A0022914202D05B68E5
:10A2A0000132FAE7186870470020704738B5044655
:10A2B00008460D46FFF7DAFD08203DF089FF002330
:10A2C000C0E90053A36A2BB9A062636AE06201335C
:10A2D000636238BDE36A5860F7E770B504464068CA
:10A2E00000252368AB4206D9466808213DF088FF67
:10A2F00001353046F5E70023C4E90033A36070BDA3
:10A30000154B70B5044603600025636A9D4212D266
:10A31000A36A0022954202D05B680132FAE71E6808
:10A320003046FFF7A8FD20B91EB1336830465B68A0
:10A3300098470135E9E704F124052846FFF7CDFFEA
:10A340002846FFF7CAFF04F1180007F001F920467C
:10A35000FFF760FD204670BD5073070010B504463E
:10A36000FFF7CEFF204630213DF04AFF204610BDCA
:10A37000A0F8A8107047C0F8AC1070472DE9FF4155
:10A38000013A13F8014BD6B20268CDE90233526CA0
:10A3900005460F4690470C2C02462968029B79D04F
:10A3A0002FD8052C69D01AD8022C60D00BD8012CDC
:10A3B00053D006230093D1F8DC60002322463946AF
:10A3C0002846B0476EE0032C54D0042CF1D1009302
:10A3D000D1F89440334639462846A04762E0092C1C
:10A3E00052D007D8062C4BD0082CE2D10093D1F8DC
:10A3F000A440EFE70A2C4DD00B2CDAD1D1F8B440B1
:10A400002DE0162C51D00FD8112C40D005D8102C8F
:10A41000CFD10093D1F8B840DCE7122C18D0132C20
:10A42000C7D1D1F8C8401AE01D2C04D00CD8182C84
:10A430003FD01B2CBDD10093D1F8D48033462246A7
:10A4400039462846C0472DE01E2C36D0522CB0D1BC
:10A45000CDE90063D1F8C46020E0D1F884403246F1
:10A4600039462846A44604B0BDE8F0416047D1F81B
:10A470008840F4E7D1F89040F1E7D1F89C40EEE74E
:10A480000093D1F8A040A5E7D1F8AC40E7E7D1F8B8
:10A49000C040E4E7CDE90063D1F8B0602346394617
:10A4A0002846B04704B0BDE8F0810093D1F8CC4015
:10A4B00090E70093D1F8D0408CE7D1F8D840CEE7B0
:10A4C00000F18C034FF6FF72B0F8B010914204D146
:10A4D0001C309842F8D1002070470120704708B521
:10A4E00003689B6A98474FF6FF73C01A18BF012094
:10A4F00008BD000038B50A4B0446186803681B699C
:10A500000D469847204604F18C03B0F8B020AA42CB
:10A5100004D01C309842F8D1002038BD0120FCE75F
:10A520001475070000F18C0390F9C820002A04DBA1
:10A530001C309842F8D1002070470120704730B598
:10A5400000231C2404FB0302B2F8B0508D4204D057
:10A550000133052BF6D1002002E092F8C800C009B3
:10A5600030BD30B500231C2404FB0302B2F8B05008
:10A570008D4202D1B2F8C00030BD0133052BF3D1BA
:10A580001720F9E71FB5ADF80D20026800930224EB
:10A590008DF80C400323D2F8F04003AAA04704B082
:10A5A00010BD1FB5ADF80920ADF80B30069A036851
:10A5B000009204248DF8084002AAD3F8F040052345
:10A5C000A04704B010BD1FB5ADF80B30BDF8183072
:10A5D000ADF80920ADF80D30079A036800921024F9
:10A5E0008DF8084002AAD3F8F0400723A04704B032
:10A5F00010BD1FB5ADF80B30BDF81830ADF809200F
:10A60000ADF80D30079A0368009208248DF80840D1
:10A6100002AAD3F8F0400723A04704B010BD0123DD
:10A6200080F83C31704700001FB5ADF80A309DF846
:10A6300018308DF80C30084B8DF8092001208DF86A
:10A640000800186802AA03680092D3F89440042214
:10A650000523A04704B010BD1475070001299CBF55
:10A6600000EB8100C0F8542170471FB5ADF80D20F4
:10A67000026800930A248DF80C400323D2F8F040BE
:10A6800003AAA04704B010BD70B500231C2505FB2C
:10A690000304B4F8B0608E4204D00133052BF6D128
:10A6A000002002E084F8C820012070BD70B50023AE
:10A6B0001C2505FB03F40619B6F8B0608E4204D0E1
:10A6C0000133052BF5D1002010E004F1B301014462
:10A6D000941D11F8015F04F801599442F9D11C222C
:10A6E00002FB0303012093F8B330237070BD000018
:10A6F00010B5054B03600446D0F8400108B148F09E
:10A70000ADFC204610BD00BF7473070010B50446B1
:10A71000FFF7EEFF20464FF4AE713DF071FD20468D
:10A7200010BD00002DE9F0431D4B1D688BB00623C2
:10A730000F460421002490462A680097CDE90713AC
:10A74000C821CDE905410C21CDE90331CDE90184D2
:10A750000646D2F854902346302260212846C84746
:10A76000D8B907F097F8044607F094F8D6F8AC305B
:10A77000001B98422B680DD21B6928469847336806
:10A7800042465B6B3946304698470028ECD00BB008
:10A79000BDE8F083DB6D284698470020F7E700BF4F
:10A7A00014750700F8B503689B6A044698474FF68E
:10A7B000FF73984206461ED0104B1D682B68014659
:10A7C000D3F898302846984707F064F8074607F012
:10A7D00061F8D4F8AC30C01B98420CD22B682846E4
:10A7E0001B699847236831469B6B20469847002891
:10A7F000EDD10120F8BD0020FCE700BF1475070073
:10A800002DE9F3410546089CA5F848111078C5F8D4
:10A810004C41013085F84A01002085F85001194863
:10A82000066830680092D0F89480DBB2042230468B
:10A830000F46C04724B307F02DF8044607F02AF866
:10A84000D5F8AC30001B984214D2336830461B69EF
:10A8500098472B6839469B6B2846984750B195F826
:10A8600050010028EAD04FF6FF73A5F8483102B036
:10A87000BDE8F0814FF6FF73A5F848310020F6E7F8
:10A880002046F4E7147507002DE9F0479946036860
:10A890009B6A044698474FF6FF739842074604D1D7
:10A8A0004FF000084046BDE8F08723680146D3F822
:10A8B000E0302046984780460028F1D000251C2330
:10A8C00003FB054ABAF8B060BE4233D1DAF8C430AF
:10A8D0003BB910203DF07CFC0746FFF73DFCCAF871
:10A8E000C4701C2303FB0545D5F8C450002DD7D0F8
:10A8F0002846B9F1000F21D1FFF772FC23682A46E0
:10A90000D3F8E47031464B462046B8470028C7D0FC
:10A9100023682A46D3F8E830314620469847002875
:10A92000BED023682A4631462046D3F8EC30BDE835
:10A93000F04718470135052DC2D1B1E7FFF72DFCCF
:10A94000002782465745D9DA39462846FFF727FCC3
:10A95000FFF78AFA494649F04BFA0028A2D001379E
:10A96000F0E7F0B5C5B004469DF82851ADF80D20CC
:10A970000F4612218DF80C102A4619460DF10F00D2
:10A9800048F0B0FE23684B9A0092D3F8F06003AA17
:10A99000EB1C39462046B04745B0F0BDF0B5C5B018
:10A9A00004469DF82851ADF80D200F4652218DF830
:10A9B0000C102A4619460DF10F0048F093FE23684B
:10A9C00000220092D3F8F06003AAEB1C394620461F
:10A9D000B04745B0F0BD70B500241C2505FB04F35D
:10A9E000C618B6F8B0608E4204D00134052CF5D1FB
:10A9F000002006E0C9331488C452C11893788B70C4
:10AA0000012070BD10B500F1C90300F2551033F8F4
:10AA1000194C8C4201BF1C8814809C7894701C33A4
:10AA20008342F4D1002010BD70B500241C2505FB25
:10AA300004F3C618B6F8B0608E4204D00134052C79
:10AA4000F5D1002006E0B43318440368136083880E
:10AA50009380012070BDF0B500241C2606FB04F392
:10AA6000C518B5F8B0708F4204D00134052CF5D16B
:10AA7000002009E0BA330344591E11F8010F20B930
:10AA8000C1F1BF004019F8D1F0BD196811609B8871
:10AA900093800120F8E700002DE9F04196B0984638
:10AAA0001C9E044600271C234FF6FF7C03FB07F582
:10AAB0006019B0F8B0E0E64505D00137052FF5D1B3
:10AAC00016B0BDE8F081172380F8B220A0F8C0309E
:10AAD000A0F8B01080F8B38005F1B4033168E150FC
:10AAE000E218B388938001A9731E052213F8010FA1
:10AAF000505412F1FF32F9D20D4B1868BA35036881
:10AB00006719D3F890303A46984708B96051B88031
:10AB1000D4F85441002CD3D03246414603A8FEF766
:10AB2000CBFA03A8A04703A8FEF70EFAC8E700BFB8
:10AB3000147507002DE9F04106460F46904600F1D6
:10AB4000B405002415F8013CBB420CD10622414655
:10AB5000284648F095FD30B91C2303FB0464B4F883
:10AB6000B000BDE8F0810134052C05F11C05E9D1E8
:10AB70004FF6FF70F5E72DE9F04106460F46904687
:10AB800000F1B405002415F8013CBB420CD10622AB
:10AB90004146284648F074FD30B91C2303FB046489
:10ABA000D4F8C400BDE8F0810134052C05F11C0582
:10ABB000E9D10020F6E738B54FF6FF7204460B46A0
:10ABC0000020B3F8B050954203D093F8B250012D55
:10ABD00008D00130052803F11C03F2D12046FEF70E
:10ABE0005BFA0AE01C23434303F1B4020B440A441A
:10ABF000204693F8B310FEF75FFA204638BD98B5AB
:10AC0000B0F8A820D31DEC46DB08ACEBC30300AFC3
:10AC10009D460368D3F88C406B46A047003018BFB0
:10AC20000120BD4698BD00002DE9F04F87B002AF6E
:10AC30009146DFF890A0B96000F18C020546FA60F9
:10AC40001C460026B5F8B080C7F804D04FF6FF7355
:10AC500098452BD0B5F8C030DA1D6946D208A1EB73
:10AC6000C202033B95469BB2A4B29C424FF01B022A
:10AC700028BF1C468DF808203A89ADF809204946BE
:10AC800022460DF10B0048F02DFDDAF800000DF121
:10AC9000080B0268CDF800B0E31CD2F894B0DBB228
:10ACA00004224146D847D7F804D00136FB681C354A
:10ACB0009D42C7D1002E14BF204600201437BD4648
:10ACC000BDE8F08F147507002DE9F04F87B002AF93
:10ACD000C7E9002100F5A072064600F1B405BA608C
:10ACE0001C464FF0000935F804ACC7F80CD04FF6FD
:10ACF000FF739A4542D0AB89DA1D6946D208A1EBB1
:10AD0000C202033B95469BB2A4B29C424FF01D0287
:10AD100028BF1C468DF80820BA88ADF8092039688C
:10AD200022460DF10B0048F0DDFC002386F83C3193
:10AD3000194BD3F800800DF1080BD8F80020CDF89E
:10AD400000B0E31CD2F894B0DBB204225146404676
:10AD5000D84796F83C316BB9D8F8003040461B69AB
:10AD60009847336815F8011C5B6B2A4630469847B4
:10AD70000028EED1D7F80CD009F10109BB681C35C9
:10AD8000AB42B0D1B9F1000F14BF204600201437F8
:10AD9000BD46BDE8F08F00BF147507002DE9F04FE8
:10ADA00089B002AF042BFA603A6CC7F808D0C7E943
:10ADB000041014880AD0036804220092D3F8DC50EF
:10ADC0002346A8471C37BD46BDE8F08FFB68073314
:10ADD0006A46DB08A2EBC3039D460DF10808052374
:10ADE0008DF80830002388F80130484B013CD3F837
:10ADF00000A0A4B20225DAF800305046DB6998477B
:10AE0000844258D23B6C5B88A34254D9DAF80030B4
:10AE100021461B6A5046984703689B6883469847BB
:10AE200042F6030301349842A4B255D15846FEF7C6
:10AE300023FB231A59425941DBF8003079609B68A3
:10AE4000584698477968024611B9B0F5245F45D154
:10AE50005846C7E90012FEF77BFAD7E9001202282C
:10AE6000064614BF0223012398F8010008B988F8A8
:10AE7000013098F8010098421DD105F102091FFA2E
:10AE800089F928F8054008EB090311B9B2F5245FE8
:10AE900027D158467B60FEF758FA7B680146324658
:10AEA000184648F01FFC09EB0605ADB20236FB68F8
:10AEB0002E44B3429FDA022D1CD17A693B6C126892
:10AEC0001B880A210091D2F8DC40D7E90410042243
:10AED000A047D7F808D075E70021ADE70226012387
:10AEE000C2E7DBF8003058469B689847043528F8DD
:10AEF0000900DAE7064B18680368CDF80080D3F83C
:10AF000094403969EBB20422A047E2E7B474070029
:10AF1000147507002DE9F04F89B002AF052B3E6C88
:10AF2000C7F808D08346C7E9032134880BD80368E3
:10AF300004220092D3F8DC5006222346A8471C378F
:10AF4000BD46BDE8F08FFA6807326946D208A1EB2A
:10AF5000C202954607228DF80820B288B2F5205F1C
:10AF60000DF1080A0DD0DBF8002033880A2100918A
:10AF7000D2F8DC40396906225846A047D7F808D0F5
:10AF8000DDE7063B9BB27B61274B013CD3F8009089
:10AF9000B31DA4B201257B60D9F800304846DB69B7
:10AFA0009847844232D27388A3422FD9D9F800300F
:10AFB00021461B6A4846984703689B688046984725
:10AFC000B38883421BD14046FEF7C2F97B699842A1
:10AFD00015D14046FEF7B9F97A69796848F050FB17
:10AFE00068B94046FEF78FFE2AF805004046FEF796
:10AFF0008CFEAB1C9BB204352AF80300ADB2FA6894
:10B00000EB1C9A4202DD0134A4B2C5E7012DAAD09F
:10B01000064B18680368CDF800A0D3F8944039694E
:10B02000EBB20422A047A9E7B47407001475070027
:10B030002DE9F04F89B002AF062BBA603A6CC7F821
:10B040000CD081468B46158804D19388A3F52053F4
:10B05000012B0FD9D9F8003010220092D3F8DC4030
:10B060002B4659464846A047D7F80CD01C37BD465A
:10B07000BDE8F08FBB6807336A46DB08A2EBC30369
:10B080009D4602AE11238DF8083000237370364BB5
:10B09000013DD3F800A0ADB20224DAF800305046EA
:10B0A000DB699847854247D23B6C5B88AB4243D90A
:10B0B000DAF8003029461B6A504698473B6C026814
:10B0C0009B887B619268804690477B69834230D140
:10B0D0004046FEF73DF90228034614BF1423062319
:10B0E0003B61737878610BB93B7C737073783A6914
:10B0F000934221D14046FEF706FE30534046FEF70C
:10B1000004FEA31C9BB20434A4B2F052331940468F
:10B110007B60FEF71AF97B687A690146184648F0A9
:10B12000E1FA7B69BA681C443B69A4B223449A42A1
:10B1300002DB0135ADB2B0E7022C09D13B6CD9F886
:10B1400000201B880A210091D2F8DC40102288E7F9
:10B15000064B186803680096D3F894500422E3B2B3
:10B160005946A84780E700BFB4740700147507006C
:10B170002DE9F04F89B002AF91463A6CC7F808D07C
:10B18000062BC7E9031015880BD003680422009230
:10B19000D3F8DC4008222B46A0471C37BD46BDE84B
:10B1A000F08F09F107036A46DB08A2EBC3039D4653
:10B1B0000DF1080809238DF80830002388F80130C4
:10B1C0006D4B1B687B613B6C013D0433ADB20224C7
:10B1D0007B607B6978691B68DB699847854280F0F2
:10B1E00083803B6C5B88AB427ED97B6978691B6846
:10B1F00029461B6A984703689B68064698473B6C3C
:10B200009B888342336805F1010A1FFA8AFA9B681A
:10B2100030467AD1984742F6030398423DD13046F2
:10B22000FEF72AF9824535D03046FEF791F898F8B6
:10B2300001200228034614BF4FF0150B4FF0070BF7
:10B240000AB988F801B098F801203B605A454BD103
:10B2500028F804A03046FEF78BF8A21C92B2023503
:10B2600008F80200E21C92B2304628F80250FEF7BD
:10B270006CF805343B68A4B208EB04051A46014695
:10B28000284648F02FFA3B681C44A4B2A344D94591
:10B290002ADB55460135ADB29BE7336830469B68E3
:10B2A000984742F602139842F4D128F804A0304699
:10B2B000FEF752FA0234A4B2A9EB040980B21FFAD5
:10B2C00089F9814528BF8146304608EB0405FEF721
:10B2D00045FA4A4601464C44284609F1020948F01D
:10B2E00001FAA4B288F80190022C38D13A693B6C7B
:10B2F00012681B880A210091D2F8DC40D7E90310BC
:10B300000822A047D7F808D047E7984742F603033A
:10B310009842BFD13046FEF71BF802288346B9D1C8
:10B320003046FEF712F85A460146786848F0A8F908
:10B330000028AFD128F804A03046FEF723F80234E5
:10B34000A4B2A9EB04091FFA89F980B2814528BF8C
:10B350008146304608EB0405FEF712F8B9E7074BC3
:10B3600018680368CDF80080D3F89450F968E3B208
:10B370000422A847C6E700BFB4740700147507008D
:10B380002DE9F043012B97B0044602AF0E46154657
:10B39000E8460BD0036804220092D3F8DC40182260
:10B3A0000023A0475437BD46BDE8F083B0F83E11F6
:10B3B00029B33B6F1B78DB0721D5204B1868036846
:10B3C00001391B6A9847002381461C2000FB03F2C9
:10B3D000A118B1F8B0C0B4452CD1B432224491F8D0
:10B3E000B310381DFDF768FE4846B4F84431D4F870
:10B3F0004021391DFEF741F9381DFDF7A5FD002359
:10B400000735A4F83E31A4F84431ED086B46A3EBB0
:10B41000C5039D4619238DF80830094B186802AA08
:10B4200003680092D3F89440042201233146A047D8
:10B43000C546B7E70133052BC8D1E0E7B474070070
:10B44000147507002DE9F04F87B002AF032B0446B7
:10B450000D467A601E46C7F80CD00DD8036804224A
:10B460000092D3F8DC4016220023A047D7F80CD076
:10B470001437BD46BDE8F08FBB6B1B883B811FFABC
:10B4800083F8BB6BB3F802B04B4BD3F80090D9F8FC
:10B4900000304846DB69984708F1FF318BB28342A0
:10B4A00006D923680A220092D3F8DC60434620E0E4
:10B4B000D9F8003048461B6A984703689B68814664
:10B4C000984742F60303984202D023680B22EAE72A
:10B4D0004846FDF7D1FF40458246F6D14846FDF784
:10B4E00047FF03070AD4236803210091D3F8DC60E7
:10B4F0005346162229462046B047B7E7B4F83E31F6
:10B50000E3B948463B60FDF739FF01468246D4F86F
:10B51000400148F045FA3B683A89A4F83E21C4F856
:10B520004001A4F844315246194648F0D9F9B4F81C
:10B5300044315B4507D023680722B4E75345F6D072
:10B5400023680E21D1E7331F5FFA83FA0BEB0A025F
:10B550004846BA60FDF712FFBA6880B28242EADC60
:10B56000BB6BD4F840015246191D584448F0BAF854
:10B57000B4F84421B96B0AEB0203A4F844317B68A8
:10B5800007336A46DB08A2EBC3039D4617238DF8F9
:10B59000083032460DF1090048F0A4F8074B18684E
:10B5A00002AC02680094731CD2F89440DBB204220F
:10B5B0002946A0475AE700BFB47407001475070076
:10B5C0002DE9F04F8FB002AFC7E90021FB60B0F862
:10B5D000A830F96807336A46DB08A2EBC30307F11A
:10B5E00018059D468346284600F0E8FE0DF108093F
:10B5F0000124BD60DBF80030CDF804904FF42052F8
:10B600000092D3F8BC5079684FF6FF732246584633
:10B61000A847054620B199F80030112B04D001202D
:10B620003437BD46BDE8F08F99F801307B61A3F156
:10B63000040802235FFA88F809F102063B614FF61D
:10B64000FF7A3B69AB4204DB4FF6FF739A45D1D0DA
:10B65000E5E7FB68E3B930203CF0BAFD314672887B
:10B6600031F8043B009204464246FEF7F1FD2146C4
:10B670003868FEF77BFD7488D7E904320134A4B240
:10B68000002C134408BF4FF0000A3B611644D8E772
:10B69000B86800F0D1FE4045EDD1B86800F0CAFEB0
:10B6A00042460146301D47F0EBFF0028D3D0E2E7C9
:10B6B0002DE9F04F8DB0B0F8A83004AFC7E90421F0
:10B6C00007336A46DB08A2EBC3039D46824638690E
:10B6D000FEF763FD0DF11009F8604FF00008FB68FC
:10B6E00098454ADA41463869FEF759FDB861FEF7D8
:10B6F000C9FD0646B869FEF7C7FDB860DAF8003044
:10B70000CDF8049042F603020092D3F8A84079697C
:10B71000BB6832465046A047054678B399F80030DA
:10B72000092B27D199F80130FB61053BDBB27B6027
:10B7300009F102044FF0020BAB45DFDA38203CF090
:10B7400047FDB4F803300293A37801932388009354
:10B7500006467B697A68611DFEF792FB3146B8693F
:10B76000FEF7A4FDB4F80360FB690136B6B29B4452
:10B770001C44E1E708F10108B1E701202437BD4688
:10B78000BDE8F08F2DE9F04F8FB0B0F8A83002AFD0
:10B790000733C7E90421DB086A46A2EBC3039D46D1
:10B7A00002AB82463869FB62FEF7F7FC4FF0000BF4
:10B7B000F860FB689B456EDA59463869FEF7EFFC86
:10B7C0007862FEF761FDB860786AFEF75FFD431EA0
:10B7D000386200267B603B6A9E4259DA3146786ABD
:10B7E000FEF756FD7B68F8619E424AD0711C786A6C
:10B7F000FEF74EFD0546F869FEF7BEFB013084B248
:10B80000002D40D02846FEF7B7FBB862BB6AA342C2
:10B810003CD3DAF80030FA6A0092D3F8985079698C
:10B82000BB6A22465046A8470546002834D0FB6A2A
:10B830001B78052B2AD1FB6A93F801904FEA890304
:10B84000BB61FB6A4FF0020903F10208A945E0DA87
:10B8500020203CF0BDFCB8F800300093022208EB39
:10B86000020104467B69FEF765FC2146F869FEF794
:10B8700085FBB8F80040BB690134A4B299449844F0
:10B88000E4E70025B7E7BB68BB62BFE70136A2E784
:10B890000BF1010B8DE701203437BD46BDE8F08F79
:10B8A000022A7FB504460D4609D00368042200929F
:10B8B000D3F8DC4002220023A04704B070BD1B88EF
:10B8C000B0F8A8209A4228BF1A461C20002300FB8B
:10B8D0000341B1F8B060AE4211D1A1F8C020ADF87B
:10B8E0000D20094A032310688DF80C30026803A963
:10B8F0000091D2F8944029460422A047DDE70133A5
:10B90000052BE4D1EBE700BF14750700042A15D11D
:10B91000B0F848218A4211D190F84A211978013AA9
:10B920008A420BD1D0F84C2101211170D0F84C2162
:10B930001B68C2F80130052380F850317047022A95
:10B9400070B51CD100221C2505FB0204B4F8B060C0
:10B950008E4215D11A88A4F8C020B0F848218A4236
:10B960000DD190F84A21032A09D1D0F84C110A7060
:10B97000D0F84C111B88A1F8013080F8502170BD1F
:10B980000132052AE0D1E8E7012A38B50446154618
:10B9900013D9B0F8480188420FD194F84A0105281C
:10B9A0000BD1D4F84C110870D4F84C011946013071
:10B9B000013547F097FE84F8505138BD012A38B55B
:10B9C0000446154613D9B0F8480188420FD194F8BF
:10B9D0004A0111280BD1D4F84C110870D4F84C014D
:10B9E00019460130013547F07DFE84F8505138BDCD
:10B9F00038B50446B0F84801884215460FD194F88E
:10BA00004A110B290BD1D4F84C010170D4F84C0128
:10BA100019460130013547F065FE84F8505138BDB4
:10BA200038B5044615469AB1B0F8480188420FD19E
:10BA300094F84A0109280BD1D4F84C110870D4F8B5
:10BA40004C0119460130013547F04CFE84F8505145
:10BA500038BD6AB9B0F848318B4209D190F84A3103
:10BA6000132B01BFD0F84C211370012380F8503103
:10BA70007047000070B5054690F8850094B0F8B1A5
:10BA8000104B114C1868B4F84410036801391B6A54
:10BA9000984704F14702064694F8461001A8FDF7BE
:10BAA0000BFB94F84D3004F14E0201A93046FDF72E
:10BAB000E4FD01A8FDF748FA002385F88530012050
:10BAC00014B070BDB47407003C7200202DE9F04F33
:10BAD0009BB0012B8846049261D9249A023B1688B8
:10BAE000059300F5A07200F1B404039234F8043C0D
:10BAF00043453FD12569002D40D02846FEF74DFB38
:10BB00004FF0000A8146D14534DD51462846FEF704
:10BB100046FB0746FEF7B6FB864228D93846FEF7B5
:10BB2000B3FB864223D83846FEF7B0FB249B814600
:10BB3000002503F1020AA9451CDD29463846FEF717
:10BB4000A7FB8346FEF718FA86420ED1224614F868
:10BB5000011C07A8FDF7B0FA5846059B524607A9F5
:10BB6000FEF77AFA07A8FDF7EFF90135E3E70AF1E6
:10BB7000010AC8E7039B1C34A342B7D1049B1D2BC9
:10BB80000DD11AAB1E2203F84C2D064A106802682C
:10BB90000093D2F89440012304224146A0471BB0F1
:10BBA000BDE8F08F147507001F4B70B5044640F8D0
:10BBB000863B03F02CF904F1870003F028F91B4BB6
:10BBC00004F1980503F11006186859682A4603C263
:10BBD0000833B3421546F7D141F288331721C4F830
:10BBE000AC300023A4F8A810A4F83E31C4F84031CA
:10BBF000A4F8443104F1B40204F5A0704FF6FF75C7
:10BC000022F8045C02F8023C02F8013C13609380C5
:10BC10009181136113751C328242F1D1C4F8543101
:10BC2000C4F85831204670BD74730700587307007C
:10BC30002DE9F04F00230446A7B098464FF0FF359A
:10BC40001C204FF6FF7600FB0342B2F8B0208A4278
:10BC500008BF1D46B24203F1010318BF08F10108F5
:10BC6000052BF0D16B1C6ED01C236B4303F1B40782
:10BC70002344E619324693F8B3106846FDF71CFAE0
:10BC8000B8F1010F2FD1314BD3F800804FF00009EC
:10BC900042F6030BD8F800304046DB6998471FFA9C
:10BCA00089FA50451AD9D8F8003051461B6A4046E7
:10BCB000984703689B688246984758450BD1694668
:10BCC00013A8FDF7EDFB5046002213A9FDF7F5FC84
:10BCD00013A8FDF739F909F10109DBE70023A4F8FE
:10BCE0003E31A4F84431D4F85881B8F1000F08D09F
:10BCF000694613A8FDF7D4FB13A8C04713A8FDF7A6
:10BD000023F91C2303FB05434FF6FF72C3F8B02051
:10BD10000022E251B280D3F8C400A3F8C820172152
:10BD2000A3F8C01083F8CA2083F8CB2010B10368B1
:10BD30005B6898471C2303FB05440023C4F8C43008
:10BD40006846FDF701F927B0BDE8F08FB47407002D
:10BD50002DE9F04FA9B000F5A073DFF8DCB0019336
:10BD6000064600F1B4044FF000084FF6FF7934F8AE
:10BD7000041C494551D02F4B18680368D3F89830FC
:10BD800098470546002848D1224614F8011C02A80D
:10BD9000FDF792F9DBF8007008F101083B683846BE
:10BDA000DB6998471FFA85FA50451AD93B68514616
:10BDB0001B6A38469847026892688246904742F666
:10BDC000030398420BD102A915A8FDF769FB504661
:10BDD000002215A9FDF771FC15A8FDF7B5F801358E
:10BDE000DCE70023A6F83E31A6F84431206904F8C8
:10BDF000023C04F8013C2360A380C4F80630638150
:10BE0000172324F8049CA38110B103685B6898474A
:10BE10000023236102A8FDF797F8019B1C349C4284
:10BE2000A5D1B8F1000FD4BF0020012029B0BDE892
:10BE3000F08F00BF14750700B474070010B500231D
:10BE40001C2101FB030292F8C840A40702D5B2F8F6
:10BE5000B00010BD0133052BF3D10620F9E730B552
:10BE600000231C2404FB0302B2F8B0508D4204D01E
:10BE70000133052BF6D1002001E092F8C80030BD57
:10BE80002DE9F04F99B002AF044697F880B07A6080
:10BE9000BBF1010F0E461D460DD8122B07D10368CA
:10BEA00004220092D3F8DC402A460023A0475C37E6
:10BEB000BD46BDE8F08FD7F88430B3F800808E4BD4
:10BEC000D3F800A0DAF800305046DB69984708F153
:10BED000FF318BB283420CD9122DE8D123680A229C
:10BEE0000092D3F8DC902A46434631462046C847A4
:10BEF000DDE7DAF8003050461B6A984703689B6814
:10BF00008146984742F60303984240F0AD80484688
:10BF1000FDF7B2FA8045484601D1122D4AD1FDF70E
:10BF200027FA010740F1E2804846FDF724FA10F0B5
:10BF300002000FD031462046FFF791FF03063FD4A1
:10BF400023680F220092D3F8DCA020464346122239
:10BF5000D047012000234FF01C0C0CFB03F2A1186A
:10BF6000B1F8B0E0B64565D1D7F8843091F8B31098
:10BF7000ABF1020BB4325FFA8BFB03F1020A2244ED
:10BF800080B3032384F88530A4F8448084F84610F5
:10BF90001368C4F847309388A4F84B30BBF1360FD0
:10BFA0004FF00A0384F84DB084F885300AD923682D
:10BFB000112295E7FDF7DCF942077FF578AFB3E78B
:10BFC0000020C7E75A46514604F14E0047F08AFB6D
:10BFD00094F88530122D9B4484F885B07FF467AFC8
:10BFE0006D463AE007F10C00FDF766F85B465246F5
:10BFF00007F10C014846FDF740FB07F10C00FCF788
:10C00000A3FF122D7FF453AF7B6807336D46DB0827
:10C01000A5EBC3039D46132202AB8DF80820374AD7
:10C02000106802680093D2F894400123042231463C
:10C03000A04717E00133052B8FD1122D7FF437AFC6
:10C040007B6807336D46DB08A5EBC3039D461322CF
:10C0500002AB8DF808200028E1D0132323710123BF
:10C0600084F88430AD4622E7D9F8003048469B6812
:10C070009847B0F5245F39D14846FDF769F90228A1
:10C0800034D14846FDF761F9028842F602139A421C
:10C090002CD1DAF80030A8F102011B6A504698470B
:10C0A00003689B688146984742F6030398421DD176
:10C0B00000231C2000FB03F2A118B1F8B0C0B44566
:10C0C00010D1B432224491F8B31007F10C00FCF700
:10C0D000F3FFD7F8843007F10C015A884846FDF782
:10C0E000ECFA8AE70133052BE4D18AE7122D7FF4BD
:10C0F000DEAE23680322F3E6B4740700147507006C
:10C100002DE9F04F9DB0984602AFB8F10A0F1546E1
:10C1100004460E4697F89020D7F89430C7F80CD014
:10C120000FD1022A17D0036804220092D3F8DC4012
:10C1300042460023A047D7F80CD06C37BD46BDE877
:10C14000F08F042A07D0036804220092D3F8DC4061
:10C150000C220023EEE7B8F10A0FB3F8009014BFE9
:10C160005B8800237B618A4BD3F800B0DBF800309A
:10C170005846DB69984709F1FF318BB2834207D9F2
:10C1800023680A220092D3F8DC5042464B4625E051
:10C1900005F1FF3A0735ED086B46A3EBC5039D4655
:10C1A000B8F10A0F6A4614BF0D230B2302F8083FAB
:10C1B000DBF800303A611B6A5846984703689B6871
:10C1C00005469847B0F5205F2AD17B6953B12368B3
:10C1D00004220092D3F8DC500B224B463146204615
:10C1E000A847A8E72846FDF7B3F880462846FDF79C
:10C1F000ACF8424601460DF1090047F073FA08F128
:10C2000001081FFA88F8634B3A69186803680092BE
:10C21000D3F8944004225FFA88F33146A0478AE7B6
:10C2200042F60303984240F08F802846FDF722F93A
:10C2300048451DD17B6913B123680B22A2E728462C
:10C24000FDF796F83B6958702846FDF715F93B69EC
:10C2500058802846FDF77CF880462846FDF775F89B
:10C260004246014603A847F03DFA08F10408C8E732
:10C270002846FDF77DF8820702D42368022281E771
:10C280002846FDF778F810F0020B10D03146204612
:10C29000FFF7E5FD030614D423680F220092D3F8BC
:10C2A000DCB042464B462046D8474FF0010B2846AB
:10C2B000FDF768F87A6983B29A4205D323680722AA
:10C2C00060E74FF0000BF2E77B6980B2C01A82454D
:10C2D000A8BF82461FFA8AF3BB6004F5A07304F17D
:10C2E000B4097B604FF001081FFA8AFA39F8043C60
:10C2F000B34218D14A4619F8011C07F11C00FCF79B
:10C30000DBFECDF800A03B697A69434407F11C01CC
:10C310002846FDF793F907F11C00FCF715FEBB68F2
:10C3200098441FFA88F87B6809F11C099945DDD10A
:10C33000BBF1000F3FF467AF42463969201D47F05B
:10C34000D1F984F88480F6E6B0F5245F1DD1284643
:10C35000FDF702FA7A6983B29A42AFD27B6980B262
:10C36000A0EB0308C2452846A8BFC246FDF7F6F970
:10C370007B691FFA8AF2C1180AF1010A0DF109005E
:10C3800047F0B0F91FFA8AF83DE74FF001083AE7A5
:10C39000B47407001475070010B5054C2046FFF76C
:10C3A00003FC2046034A0449BDE810403BF001BDB0
:10C3B0003C72002000600020F1A6020073B5002549
:10C3C00004460E4640F8041B10222946ADF80450DE
:10C3D0008DF8065047F084FA257526B3304647F0AD
:10C3E000AFFE451E002D237D19DB0F2B1ED8735D7C
:10C3F0002D2B02D10135023DF4E77219002112F80C
:10C40000012C8DF8042001A810228DF8053047F08A
:10C41000C5FF237DE218013310712375EBE7022B72
:10C4200004D802232375204602B070BD1023F9E71B
:10C430000068704704307047007D70472DE9F04771
:10C44000144C80464D1E4FF4AA594FF02D0A6A1C19
:10C450001AD018F8057010222146380905F0EFF9B6
:10C460001022611C07F00F0005F0E9F90C2D04F112
:10C47000020606DC29FA05F3DB0744BFE61C84F854
:10C4800002A0013D3446E2E7002323700148BDE8E5
:10C49000F08700BF98730020007970472DE9F04FB6
:10C4A00089B090460DF1180B027A9DF848601F463E
:10C4B0000023054689460693ABF80430FAB99E423C
:10C4C00014BF4FF0020A4FF0030A2B6828461B697D
:10C4D0009847194BEA881C680021072023680091BF
:10C4E000CDE90301CDE9011B2046D3F83CB011464C
:10C4F0005346D84728B1002009B0BDE8F08F9A46CE
:10C50000E3E723684A461B6C4146204698470028CB
:10C51000F1D123683A465B6C3146204698470028A3
:10C52000E9D1236801219B6C204698470028E2D17D
:10C5300001202871E0E700BF14750700034B0021BC
:10C540000171186803689B6C184700BF14750700D9
:10C550002DE9F341124B1D682B6801221B6D074624
:10C560000E4628460021002498472B68CDE9004458
:10C57000D3F84C8020231A4601212846C04768B9C9
:10C58000012179712B6886EA01021B6D28469847C4
:10C59000B0FA80F0400902B0BDE8F0812046FAE729
:10C5A00014750700C180704701727047022908BFE7
:10C5B000C260704770B50B4D04461C30164605F03E
:10C5C00031F8294604F1280005F045F8294604F120
:10C5D000340005F040F82368314620465B69BDE829
:10C5E0007040184784B507002DE9F0410C4D044612
:10C5F0000F461C302946164605F02DF8394604F141
:10C60000280005F00FF8294604F1340005F023F85E
:10C610002368314620465B69BDE8F041184700BFFA
:10C6200084B507002DE9F0410C4D04460F461C303F
:10C630002946164605F00FF8294604F1280005F0B2
:10C640000AF8394604F1340004F0ECFF236831465F
:10C6500020465B69BDE8F041184700BF84B507007C
:10C660007FB5C36B04460D468BB10B6801A89B696F
:10C67000984701A904F1340005F070F8064601A8B6
:10C6800004F066FF1EB90024204604B070BD636A42
:10C6900073B1294601A8FCF723FD01A904F11C0090
:10C6A00005F04FF8064601A804F052FF002EEAD02C
:10C6B000236B6BB1294601A8FCF78CFD01A904F19D
:10C6C000280005F04BF8044601A804F041FFDBE721
:10C6D0000124D9E738B5A0220E4D0F4B0360C2806C
:10C6E000002301220446037143710272C0E903333F
:10C6F000C0E9053329461C3004F075FF294604F1D2
:10C70000280004F070FF294604F1340004F06BFFA8
:10C71000204638BD84B507007474070003688B4257
:10C7200008D9436800228A4202D05B680132FAE7E6
:10C73000186870470020704770B5044640680025AF
:10C740002368AB4206D9466808213BF059FD013504
:10C750003046F5E70023C4E90033A36070BD000054
:10C7600010B50A4B044640F8343B04F0F1FE04F1E6
:10C77000280004F0EDFE04F11C0004F0E9FE04F1D1
:10C780001000FFF7D9FF204610BD00BF74740700EA
:10C7900010B50446FFF7E4FF204640213BF030FD92
:10C7A000204610BD70B50E4B054618680368002280
:10C7B0001B6D11460024984705F110066C712B691A
:10C7C0009C4209D221463046FFF7A8FF10B103680A
:10C7D0005B6898470134F2E73046FFF7ADFF70BD64
:10C7E0001475070003688B4270B504461AD90022FD
:10C7F000406813468A42456803D003460132284602
:10C80000F8E7066863B96560A268824208BFA36062
:10C8100008213BF0F5FC2368013B2360304670BDE6
:10C820005D60F1E70026F9E72DE9F041074694B095
:10C830000D46002401F110082B699C422AD22146A2
:10C840004046FFF76BFF0646FCF701FD00B331469B
:10C8500001A8FCF725FE21464046FFF7C3FF1EB1A5
:10C86000336830465B6898472B6801A9DB6B284624
:10C87000984750B101A93846FCF712FE01A8FCF711
:10C8800063FB384614B0BDE8F08101A8FCF75CFBFF
:10C890000134D1E73846FCF7FFFBF2E72DE9F04F12
:10C8A000C568ABB004460F4692469B469DF8D080C3
:10C8B0009DF9D8902DB3032922D11A46514604A8D8
:10C8C000FCF7FAFBCDF80090359B4246394604A8A8
:10C8D000FCF797FC236804A9DB6B2046984748B116
:10C8E00004A917A8E468FCF7DBFD17A8A04717A860
:10C8F000FCF72AFB04A8FCF727FB2BB0BDE8F08F60
:10C90000002504F110032269AA420DD918462946D0
:10C910000393FFF703FF5A4651460646FCF761FCB6
:10C92000039B002841D006BB23691F2B08D9002197
:10C9300004F11000FFF756FF10B103685B689847D9
:10C940004C203BF045FC5A4651460646FCF7B4FBEA
:10C9500008203BF03DFC0023C0E90063636933BB62
:10C9600060612569A0616B1C2361042F22D0CDF882
:10C970000090359B424639463046FCF742FC304633
:10C98000FCF765FC0028B8D0E368002BB5D0314631
:10C9900004A8FCF785FD294604F11000FFF722FFEB
:10C9A000336830465B68984794E70135ABE7A36985
:10C9B0005860D6E74B46359A41463046FCF732FC84
:10C9C000DDE770B446799DF80C409DF9145026B10E
:10C9D0000595039470BCFFF761BF70BC7047000001
:10C9E00010B5054C2046FFF775FE2046034A044962
:10C9F000BDE810403BF0DDB9C073002000600020AE
:10CA000061C70200406870474368994208D2836852
:10CA10000022914202D05B680132FAE71868704741
:10CA20000020704773B5044630203BF0D1FB3249FB
:10CA30000546FDF755F9E56154203BF0C9FB00259B
:10CA40000646142302222D490095FCF763FD266259
:10CA500054203BF0BDFB02231A46064628490095A8
:10CA6000FCF758FD666230203BF0B2FB25490646D4
:10CA7000FDF736F9A66254203BF0AAFB20220423DE
:10CA8000214900950646FCF745FDE662E069FCF7A2
:10CA900062FC206AFCF75FFC606AFCF75CFCA06A41
:10CAA000FCF759FCE06AFCF756FCD4E90701FDF7F6
:10CAB0003EF9616AE069FDF73AF9D4E90A01FDF748
:10CAC00036F9236811491B6920469847236829468F
:10CAD00020465B69984723682046DB6A98472368AD
